:100000000C9442000C945F000C945F000C945F0011
:100010000C945F000C945F000C945F000C945F00E4
:100020000C945F000C945F000C945F000C945F00D4
:100030000C945F000C945F000C945F000C945F00C4
:100040000C945F000C945F000C945F000C945F00B4
:100050000C945F0024092D0959098E09C309D4099C
:100060000D0A400A730AAA0AE10A180B4B0B820B0D
:10007000B90BF00B230C5A0C910CC80CFC0C320D74
:100080009A0D660D11241FBECFE5D4E0DEBFCDBFB3
:1000900010E0A0E6B0E0E4EFF2E202C005900D92BD
:1000A000AA38B107D9F720E0AAE8B0E001C01D9254
:1000B000AE3CB207E1F70E941D0E0C9478110C942F
:1000C00000008AB38F608ABB81B3807C81BB82B31E
:1000D0008F6382BB0895E0E0F0E080E0E430F1055A
:1000E000E4F52BB361E070E00E2E02C0660F771FBF
:1000F0000A94E2F7962F909529232BBBA3ECB9E045
:100100001197F1F700C0000040E050E090E0463069
:100110005105ECF420B330E0042E02C0359527954C
:100120000A94E2F720FD0FC0990F990F980F20B3A2
:1001300030E0042E02C0359527950A94E2F720FF9F
:10014000F6CF892F08959F5F4F5F5F4FE0CF8F5F9E
:100150009BB3692B6BBB3196C1CF8FEF08958B3268
:1001600069F08D3271F08A3279F08F3281F08E35FC
:1001700089F0853291F483E090E0089581E090E089
:10018000089581E090E0089582E090E0089582E093
:1001900090E0089583E090E0089580E090E0089575
:1001A0002F923F924F925F926F927F928F929F9287
:1001B000AF92BF92CF92DF92EF92FF920F931F9375
:1001C000CF93DF93CDB7DEB72E970FB6F894DEBF8F
:1001D0000FBECDBF2D833E834F83588769877A87B3
:1001E0008B879C872A2C3B2C8C2C9D2CE982FA82B5
:1001F0000B831C831E861D860F2E412C512CF0E88C
:100200006F2EFFE37F2EF02D2D853E85932F990FC6
:10021000990B492F592F692F792F892FA22CB32C95
:10022000C82CD92CE980FA800B811C810E946311B3
:10023000C4F42D813E814F81588569857A858B85EF
:100240009C850E947D0F9B01AC01C301B2010E94FD
:1002500088102B013C018D859E8501969E878D8798
:10026000D3CFC301B2012E960FB6F894DEBF0FBEF6
:10027000CDBFDF91CF911F910F91FF90EF90DF9055
:10028000CF90BF90AF909F908F907F906F905F9036
:100290004F903F902F9008958F929F92AF92BF9270
:1002A000CF92DF92EF92FF920F931F93CF93DF9342
:1002B0006B017C0120E030E040E05FE30E948810A9
:1002C000D62FC72F982E892E2D2F3C2F492D582DF4
:1002D000C701B6010E94A00E9B01AC016D2F7C2FBF
:1002E000892D982D0E942F0E20E030E040E05FE342
:1002F0000E948810A62EB72E082F192F2D2F3C2FC5
:10030000492D582D0E942E0E9F77DA2DCB2D902E41
:10031000812E2CEA35EC47E257E30E9483108823B4
:100320009CF66A2D7B2D802F912FDF91CF911F910D
:100330000F91FF90EF90DF90CF90BF90AF909F9084
:100340008F9008950F930B3269F028F40532B1F0C5
:100350000A3271F01FC00F3271F00E35B1F00D325C
:10036000C9F403C00E942F0E18C00E942E0E15C0A3
:100370000E94881012C00E94A00E0FC020E030E042
:1003800048EC52E40E94A00E08C0CA01B9010E94C4
:100390004C0103C060E070E0CB010F9108954F92D3
:1003A0005F926F927F928F929F92AF92BF92CF9205
:1003B000DF92EF92FF920F931F93CF93DF93CDB70E
:1003C000DEB7CC5FD1090FB6F894DEBF0FBECDBF4C
:1003D0005C01CE0101960E949605CE0185589F4F83
:1003E0000E949605C12CD12CC750DF4F188219826C
:1003F0001A821B82C95FD04001C0570175018FEF7F
:10040000E81AF80AD5019C90992009F4B9C1B0E224
:100410009B1699F3892D0E948E05892B09F4B7C08C
:10042000692D70E060537109072E000C880B990B41
:100430000E94850F4B015C01F70180810E948E05AF
:10044000892B31F0D7018C91811104C010E003C0D9
:1004500010E001C011E0112311F120E030E040E292
:1004600051E4C501B4010E9488104B015C01870171
:100470000F5F1F4FF701608170E060537109072E15
:10048000000C880B990B0E94850F9B01AC01C501E4
:10049000B4010E942F0E4B015C017801CDCFD70132
:1004A0008C918E3209F062C0BFEFEB1AFB0A0F2E5F
:1004B000FDEC4F2EFCEC5F2E652CFDE37F2EF02D26
:1004C000CB50DF4F188219821A821B82C55FD04041
:1004D000F70180810E948E05892B31F0D7018C9124
:1004E000811104C0812F03C0812F01C081E08823C6
:1004F00079F1F70161917F0170E060537109072E76
:10050000000C880B990B0E94850FA30192010E9499
:1005100088109B01AC01CB50DF4F688179818A81C3
:100520009B81C55FD0400E942F0ECB50DF4F688368
:1005300079838A839B83C55FD0402DEC3CEC4CECE7
:100540005DE3C301B2010E9488102B013C01C0CFC2
:10055000CB50DF4F288139814A815B81C55FD04014
:10056000C501B4010E942F0E4B015C01F1E0CF16D2
:10057000D10431F4B7FAB094B7F8B094C12CD12CAF
:10058000B501A401CE0101960E949E0536CF8EE2F0
:10059000981271C00F2EFDEC8F2EFCEC9F2EA92C13
:1005A000FDE3BF2EF02D412C512C3201D7018C914F
:1005B0000E948E05892B29F0F7018081811103C0EB
:1005C00003C080E001C081E0882319F1D7016D915B
:1005D0007D0170E060537109072E000C880B990BA8
:1005E0000E94850FA50194010E9488109B01AC0117
:1005F000C301B2010E942F0E2B013C012DEC3CECFB
:100600004CEC5DE3C501B4010E9488104B015C0114
:10061000CDCFA3019201C750DF4F688179818A81D4
:100620009B81C95FD0400E942F0EC750DF4F688367
:1006300079838A839B83C95FD040B1E0CB16D10414
:1006400069F4DC01CB01B058C750DF4F8883998330
:10065000AA83BB83C95FD040C12CD12CC750DF4FC8
:10066000488159816A817B81C95FD040CE01019662
:100670000E949E05C2CECE0185589F4F0E94B605AE
:1006800020E030E0A9010E94831088239CF0CE0175
:1006900085589F4F0E94B6050E944E0F862F0E94DC
:1006A000AF008C01892D0E94AF000817190724F0B4
:1006B00081E003C080E001C080E08823E9F0CE0142
:1006C00085589F4F0E94CD050E944E0F062FCE01E8
:1006D00001960E94CD052B013C01CE0101960E949E
:1006E000CD05A30192010E94A201AB01BC01CE0184
:1006F00001960E949E05BFCF9EE5991208C040E07A
:1007000050E060E87FE3CE0101960E949E05A5E2DD
:100710009A1208C040E050E060E87FE3CE01019605
:100720000E949E05692D70E080E090E00E94830F9A
:10073000AB01BC01CE0185589F4F0E949E05F5017B
:1007400081818D3241F47501F2E0EF0EF11CCC2471
:10075000C394D12C52CE8B3229F4750182E0E80E7D
:10076000F11C4BCE0E948E05892B09F046CED50197
:1007700011968C918F3291F18A3209F03ECE33C0BE
:10078000CE0185589F4F0E94B60520E030E0A901B8
:100790000E9483101816ECF4CE0185589F4F0E94DA
:1007A000CD050E944E0F062FCE0101960E94CD0569
:1007B0006B017C01CE0101960E94CD05A701960137
:1007C0000E94A201AB01BC01CE0101960E949E05D0
:1007D000D7CFCE0101960E94B60509C060E070E057
:1007E00080E89FEB04C060E070E080E89FEBC450BD
:1007F000DF4F0FB6F894DEBF0FBECDBFDF91CF91B4
:100800001F910F91FF90EF90DF90CF90BF90AF902E
:100810009F908F907F906F905F904F900895EF9290
:10082000FF921F93CF93DF937C0101C07E01E7010C
:100830002196F7011081112309F485C01032B1F31C
:10084000812F0E948E05892B29F18881882331F020
:100850000E948E05892B21F011E003C010E001C039
:1008600010E0112311F02196F0CF88818E32F1F63D
:10087000219688810E948E05892B29F0888181111B
:1008800004C0812F03C0812F01C081E0882371F251
:100890002196EFCF1E3209F5F7018181882331F0CF
:1008A0000E948E05892B21F411E003C010E001C0E5
:1008B00010E011114BC088810E948E05892B29F010
:1008C0008881811104C0812F03C0812F01C081E084
:1008D000882309F4ABCF2196EECFF70181818111F6
:1008E00002C01532B1F5153289F40E948E05892BAC
:1008F00031F4F70181818E3221F481E003C081E07F
:1009000001C080E0882309F491CF26C01E3559F438
:10091000882309F48BCF8D3211F18A3219F18F328D
:1009200009F084CF22C01D3219F01B3209F07ECFAE
:10093000882309F47BCF8F32D9F08A3209F076CF41
:1009400081E090E017C080E090E014C081E090E08A
:1009500011C081E090E00EC081E090E00BC081E02A
:1009600090E008C081E090E005C081E090E002C026
:1009700081E090E0DF91CF911F91FF90EF9008957B
:1009800085BB88B38B7F88BB88B38D7F88BB88B3DA
:10099000816088BB89EF90E00197F1F700C000000B
:1009A00088B38E7F88BB83EF91E00197F1F700C099
:1009B0000000089585BB88B3846088BB88B38D7FB1
:1009C00088BB88B3816088BB89EF90E00197F1F71D
:1009D00000C0000088B38E7F88BB83EF91E0019751
:1009E000F1F700C0000008958FEF84BB87B38760E4
:1009F00087BB88E30E94C00489EF90E00197F1F77C
:100A000000C000008CE00E94C00489EF90E00197D4
:100A1000F1F700C0000081E00E94C00489EF90E07F
:100A20000197F1F700C0000080E80E94C00489EF40
:100A300090E00197F1F700C00000089581E00E9466
:100A4000C00489EF90E00197F1F700C0000080E852
:100A50000E94C00489EF90E00197F1F700C0000008
:100A60000895813178F4633068F4613011F481586D
:100A700001C081540E94C00483EF91E00197F1F717
:100A800000C000000895CF93DF93EC018881882394
:100A900021F021960E94DA04F9CFDF91CF910895D9
:100AA000EF92FF920F931F93CF93DF938C01C0E0DF
:100AB000D0E0F801EC0FFD1F8081882311F0219612
:100AC000F8CF1C161D0684F461E081E18C1B0E94A6
:100AD00031057801EFEFEE1AFE0AF80180810E94DD
:100AE000DA0421978701EDCFDF91CF911F910F910C
:100AF000FF90EF9008950E94DA040895CF93DF935A
:100B0000EC018881882321F021960E94DA04F9CF34
:100B1000DF91CF910895FC0110820895805391E0F8
:100B20008A3008F090E0892F90E0089588589F4F10
:100B30002FEF3FEFFC01318320830895FC01E8583B
:100B4000FF4F208131812D3131057CF42F5F3F4FE4
:100B500031832083220F331F220F331FFC01E20F4A
:100B6000F31F40835183628373830895FC01E85827
:100B7000FF4F20813181332364F0220F331F220F76
:100B8000331FFC01E20FF31F608171818281938129
:100B9000089560E070E0CB010895AC01FC01E858D5
:100BA000FF4F2081318133239CF0F901EE0FFF1FAD
:100BB000EE0FFF1FE80FF91F608171818281938121
:100BC000FA01E858FF4F21503109318320830895FD
:100BD00060E070E0CB010895DC0120E030E0B90175
:100BE000FD01E20FF31F9081992319F02F5F3F4F12
:100BF000F6CF405D40836F5F7F4FFD01E60FF71F2B
:100C00001082089520E030E0B901FC01E20FF31FEB
:100C10005081552319F02F5F3F4FF6CF332364F0F7
:100C2000F9013196E80FF91FDC01A20FB31F5C91A7
:100C3000508321503109F2CF405DFC0140836E5F4B
:100C40007F4FE60FF71F10820895CF93DF9320E0C8
:100C500030E0E901FC01E20FF31F4081442319F069
:100C60002F5F3F4FF6CF332364F0F9013196E80F41
:100C7000F91FDC01A20FB31F4C91408321503109B1
:100C8000F2CFFC0160832296C80FD91F1882DF9132
:100C9000CF910895DC0120E030E0A901FD01E20FD1
:100CA000F31F9081992319F02F5F3F4FF6CF608398
:100CB0004F5F5F4FFD01E40FF51F108208954F92C3
:100CC0005F926F927F928F929F92AF92BF92CF92DC
:100CD000DF92EF92FF920F931F93CF93DF93FC016C
:100CE000C12CD12C760101C0FE01EF012196B0800C
:100CF000BB2009F4A0C080E2B816B1F38B2D0E948E
:100D00008E05892B89F36B2D70E060537109072ED6
:100D1000000C880B990B0E94850F6B017C011881D8
:100D2000812F0E948E05892B21F0111104C000E053
:100D300003C000E001C001E00023F1F020E030E05A
:100D400040E251E4C701B6010E9488106B017C01AA
:100D50002196612F70E060537109072E000C880BFB
:100D6000990B0E94850F9B01AC01C701B6010E943F
:100D70002F0E6B017C01D3CF1E3209F047C02196A4
:100D80000F2EFDEC8F2EFCEC9F2EA92CFDE3BF2E29
:100D9000F02D412C512C32011881812F0E948E059B
:100DA000892B21F0111104C0802F03C0802F01C0B6
:100DB00081E0882311F1612F70E060537109072EE3
:100DC000000C880B990B0E94850FA50194010E94CD
:100DD00088109B01AC01C301B2010E942F0E2B01B0
:100DE0003C012DEC3CEC4CEC5DE3C501B4010E94F0
:100DF00088104B015C012196CFCFA3019201C7015E
:100E0000B6010E942F0E6B017C016ECF8EE2B812EC
:100E10006BCF1881812F0E948E05892B21F0111133
:100E200004C0802F03C0802F01C081E0882309F413
:100E30005BCF2196EECFC701B601DF91CF911F9115
:100E40000F91FF90EF90DF90CF90BF90AF909F9069
:100E50008F907F906F905F904F9008952F923F9268
:100E60004F925F926F927F928F929F92AF92BF92BA
:100E7000CF92DF92EF92FF920F931F93CF93DF9366
:100E8000222E332E442E552E862E972ED82FC92F44
:100E900038010F2EFAE0AF2EF02DB12CC12CD12C41
:100EA000E12CF12C00E010E0222D332D442D552DA6
:100EB000682D792D8D2F9C2F0E94FB10642F752F8C
:100EC000422F532FC3010E940206222D332D442DA1
:100ED000552D682D792D8D2F9C2F0E94FD10222ECF
:100EE000332E442E552E862E972ED82FC92FA0E0B4
:100EF0000E946C1171F6DF91CF911F910F91FF90BD
:100F0000EF90DF90CF90BF90AF909F908F907F90A9
:100F10006F905F904F903F902F9008952F923F9247
:100F20004F925F926F927F928F929F92AF92BF92F9
:100F3000CF92DF92EF92FF920F931F93CF93DF93A5
:100F4000CDB7DEB72D970FB6F894DEBF0FBECDBF7D
:100F50006B017C015C834B8320E030E0A9010E949F
:100F60009B0E88234CF4F7FAF094F7F8F09481E0A4
:100F700090E09A87898702C01A861986C701B60150
:100F80000E94170F2B873983842E952E462E572EBD
:100F9000682E792E0E94C00F9B01AC01C701B601DB
:100FA0000E942E0E6D837E838F83988789818D8723
:100FB0000F2EFAE0AF2EF02DB12CC12CD12CE12C4C
:100FC000F12C00E010E02B853D85482D592D642D36
:100FD000752D862D972D0E94FB10222E332E4983CE
:100FE0005A83E62EF72E082F192F2B853D85482D85
:100FF000592D642D752D862D972DA22CB32CC980CB
:10100000DA800E945A110F2EFAE0AF2EF02DB12C8B
:10101000C12CD12CE12CF12C00E010E00E94FD103D
:10102000A22EB32EC42ED52EE62EF72E082F192F62
:101030002B873D87842E952E462E572E682E792E8F
:10104000422D532D69817A818B819C810E940206F9
:101050002A2D3B2D4C2D5D2D6E2D7F2D802F912F18
:10106000A0E00E946C1109F0A3CF20E030E0A901BC
:101070006D817E818F8198850E949B0E882329F047
:101080006EE28B819C810E944A061C861B86CD8065
:10109000DE80EF80F88427E137EB41ED58E3C701AC
:1010A000B6010E9483108823ACF120E030E040E2DA
:1010B00051E4C701B6010E9488106B017C010E94B7
:1010C000170FA22EB32E042F152F662E772E882EE3
:1010D000992E422F5B2D602F712F8B819C810E9456
:1010E000EC052A2D3B2D402F512F662D772D882D75
:1010F000992D0E94C00F9B01AC01C701B6010E944F
:101100002E0E6B017C018B859C8501969C878B87BD
:10111000059709F689859A85019729F46DE28B81F7
:101120009C810E9425062D960FB6F894DEBF0FBE57
:10113000CDBFDF91CF911F910F91FF90EF90DF9086
:10114000CF90BF90AF909F908F907F906F905F9067
:101150004F903F902F9008956F927F928F929F9221
:10116000AF92BF92CF92DF92EF92FF920F931F93B5
:10117000CF93DF936B017C018A010E94170F622ECF
:10118000732E842E952EA62EB72ED82FC92F0E94EF
:10119000C00F9B01AC01C701B6010E942E0E20E0DA
:1011A00030E0A9010E949B0E81110BC0262D372D26
:1011B000482D592D6A2D7B2D8D2F9C2F0E942E0797
:1011C00005C0A801C701B6010E948E07DF91CF912B
:1011D0001F910F91FF90EF90DF90CF90BF90AF9055
:1011E0009F908F907F906F900895AC0180E090E089
:1011F000FA01E80FF91F2081222311F00196F8CFA0
:101200000895DC0120E030E0FB01E20FF31F908144
:10121000992339F0FD01E20FF31F90832F5F3F4FB9
:10122000F3CFFD01E20FF31F108208950E946100C9
:10123000C0E00E946B00E82FF0E0E831F105C8F74C
:10124000E65DFF4F0C94F51010928A0010928B000F
:1012500010928C0010928D00ECCF80EB90E00E94F9
:101260008B050E941E058FE99FE00197F1F700C0F2
:10127000000088E690E00E94430580EB90E00E9429
:101280008B0560918A0070918B0080918C00909109
:101290008D0040EB50E00E94AC0880EB90E00E9493
:1012A00050058FE097E20197F1F700C00000C1E020
:1012B000C0CF80EB90E00E940F04019759F48AE6BA
:1012C00090E00E9450058FE097E20197F1F700C08F
:1012D0000000AFCF80EB90E00E945F069B01AC0165
:1012E00060918A0070918B0080918C0090918D00AC
:1012F0000E942E0E60938A0070938B0080938C0066
:1013000090938D0080EB90E00E9450058FE097E273
:101310000197F1F700C00000C1E08BCF80EB90E0B7
:101320000E940F04019759F48AE690E00E9450054C
:101330008FE097E20197F1F700C000007ACF80EBD1
:1013400090E00E945F069B01AC0160918A00709161
:101350008B0080918C0090918D000E942F0E6093E5
:101360008A0070938B0080938C0090938D0080EBAB
:1013700090E00E9450058FE097E20197F1F700C0DE
:101380000000C1E056CF80EB90E00E948B0582E91F
:1013900090E00E948B050E941E058FE99FE0019757
:1013A000F1F700C0000045CF80918E0090918F0032
:1013B000A0919000B0919100B05880938E009093CE
:1013C0008F00A0939000B09391000E941E058FE9BA
:1013D0009FE00197F1F700C0000082E990E00E94D1
:1013E000430580EB90E00E948B0560918E00709128
:1013F0008F00809190009091910040EB50E00E940E
:10140000AC0880EB90E00E9450058FE697E10197D1
:10141000F1F700C00000C1E00CCF80EB90E00E942B
:10142000F5080F9718F088E10E94C004C130C9F494
:101430000E941E058FE99FE00197F1F700C00000B0
:1014400080EB90E00E948B0582E990E00E948B0582
:1014500010928E0010928F001092900010929100C6
:10146000C0E085E20E947B058FE097E20197F1F7EB
:1014700000C0000065E280EB90E00E944A06D9CEF1
:10148000C130C9F40E941E058FE99FE00197F1F772
:1014900000C0000080EB90E00E948B0582E990E0A4
:1014A0000E948B0510928E0010928F001092900077
:1014B00010929100C0E080EB90E00E94F5080F9739
:1014C00018F088E10E94C00488EE0E947B058FE03E
:1014D00097E20197F1F700C000006EE580EB90E025
:1014E0000E944A06A6CEC130C9F40E941E058FE9AB
:1014F0009FE00197F1F700C0000080EB90E00E94B0
:101500008B0582E990E00E948B0510928E0010926C
:101510008F001092900010929100C0E080EB90E05C
:101520000E94F5080F9718F088E10E94C00480E738
:1015300090E00E947E058FE097E20197F1F700C0EE
:10154000000047E050E060E070E080EB90E00E9437
:10155000EC056FCEC130C9F40E941E058FE99FE0F3
:101560000197F1F700C0000080EB90E00E948B052E
:1015700082E990E00E948B0510928E0010928F00FD
:101580001092900010929100C0E080EB90E00E94D9
:10159000F5080F9718F088E10E94C00482E790E0F8
:1015A0000E9443058FE097E20197F1F700C0000029
:1015B00048E050E060E070E080EB90E00E94EC05D5
:1015C00038CEC130C9F40E941E058FE99FE0019713
:1015D000F1F700C0000080EB90E00E948B0582E9EB
:1015E00090E00E948B0510928E0010928F00109256
:1015F000900010929100C0E080EB90E00E94F5080E
:101600000F9718F088E10E94C00484E790E00E94E0
:1016100043058FE097E20197F1F700C0000049E031
:1016200050E060E070E080EB90E00E94EC0501CEBD
:10163000C130C9F40E941E058FE99FE00197F1F7C0
:1016400000C0000080EB90E00E948B0582E990E0F2
:101650000E948B0510928E0010928F0010929000C5
:1016600010929100C0E080EB90E00E94F5080F9787
:1016700018F088E10E94C0048DEF0E947B058FE086
:1016800097E20197F1F700C000006FE280EB90E075
:101690000E944A06CECDC130C9F40E941E058FE9D2
:1016A0009FE00197F1F700C0000080EB90E00E94FE
:1016B0008B0582E990E00E948B0510928E001092BB
:1016C0008F001092900010929100C0E080EB90E0AB
:1016D0000E94F5080F9718F088E10E94C00486E781
:1016E00090E00E9443058FE097E20197F1F700C078
:1016F000000044E050E060E070E080EB90E00E9489
:10170000EC0597CDC130C9F40E941E058FE99FE01A
:101710000197F1F700C0000080EB90E00E948B057C
:1017200082E990E00E948B0510928E0010928F004B
:101730001092900010929100C0E080EB90E00E9427
:10174000F5080F9718F088E10E94C00488E790E040
:101750000E9443058FE097E20197F1F700C0000077
:1017600045E050E060E070E080EB90E00E94EC0526
:1017700060CDC130C9F40E941E058FE99FE001973A
:10178000F1F700C0000080EB90E00E948B0582E939
:1017900090E00E948B0510928E0010928F001092A4
:1017A000900010929100C0E080EB90E00E94F5085C
:1017B0000F9718F088E10E94C0048AE790E00E9429
:1017C00043058FE097E20197F1F700C0000046E083
:1017D00050E060E070E080EB90E00E94EC0529CDE5
:1017E000C130C9F40E941E058FE99FE00197F1F70F
:1017F00000C0000080EB90E00E948B0582E990E041
:101800000E948B0510928E0010928F001092900013
:1018100010929100C0E080EB90E00E94F5080F97D5
:1018200018F088E10E94C00488E70E947B058FE0E1
:1018300097E20197F1F700C000006AE280EB90E0C8
:101840000E944A06F6CCC130C9F40E941E058FE9F9
:101850009FE00197F1F700C0000080EB90E00E944C
:101860008B0582E990E00E948B0510928E00109209
:101870008F001092900010929100C0E080EB90E0F9
:101880000E94F5080F9718F088E10E94C0048CE7C9
:1018900090E00E9443058FE097E20197F1F700C0C6
:1018A000000041E050E060E070E080EB90E00E94DA
:1018B000EC05BFCCC130C9F40E941E058FE99FE042
:1018C0000197F1F700C0000080EB90E00E948B05CB
:1018D00082E990E00E948B0510928E0010928F009A
:1018E0001092900010929100C0E080EB90E00E9476
:1018F000F5080F9718F088E10E94C0048EE790E089
:101900000E9443058FE097E20197F1F700C00000C5
:1019100042E050E060E070E080EB90E00E94EC0577
:1019200088CCC130C9F40E941E058FE99FE0019761
:10193000F1F700C0000080EB90E00E948B0582E987
:1019400090E00E948B0510928E0010928F001092F2
:10195000900010929100C0E080EB90E00E94F508AA
:101960000F9718F088E10E94C00480E890E00E9480
:1019700043058FE097E20197F1F700C0000043E0D4
:1019800050E060E070E080EB90E00E94EC0551CC0C
:10199000C130C9F40E941E058FE99FE00197F1F75D
:1019A00000C0000080EB90E00E948B0582E990E08F
:1019B0000E948B0510928E0010928F001092900062
:1019C00010929100C0E080EB90E00E94F5080F9724
:1019D00018F088E10E94C00482E890E00E9443056C
:1019E0008FE097E20197F1F700C000006DE280EB15
:1019F00090E00E944A061DCCC130C9F40E941E0529
:101A00008FE99FE00197F1F700C0000080EB90E0C4
:101A10000E948B0582E990E00E948B0510928E0057
:101A200010928F001092900010929100C0E080EB15
:101A300090E00E94F5080F9718F088E10E94C0041A
:101A400084E890E00E9443058FE097E20197F1F768
:101A500000C0000040E050E0BA0180EB90E00E943E
:101A6000EC05E7CBC130C9F40E941E058FE99FE069
:101A70000197F1F700C0000080EB90E00E948B0519
:101A800082E990E00E948B0510928E0010928F00E8
:101A90001092900010929100C0E080EB90E00E94C4
:101AA000F5080F9718F088E10E94C00486E890E0DE
:101AB0000E9443058FE097E20197F1F700C0000014
:101AC0006EE280EB90E00E944A06B3CBC130C9F4CD
:101AD0000E941E058FE99FE00197F1F700C000000A
:101AE00080EB90E00E948B0582E990E00E948B05DC
:101AF00010928E0010928F00109290001092910020
:101B0000C0E080EB90E00E94F5080F9718F088E1A4
:101B10000E94C00488E890E00E9443058FE097E2AD
:101B20000197F1F700C000006BE280EB90E00E94AB
:101B30004A067FCB82E990E00E948B0580EB90E023
:101B40000E940F04019761F48AE690E00E9450051C
:101B50008FE097E20197F1F700C00000C1E069CB88
:101B600080EB90E00E94CF0160938E0070938F0015
:101B700080939000909391000F2EFFE3AF2EF02DF5
:101B8000B12CC12CD12CE12CF12C00E010E022E092
:101B900030E040E050E060E070E080E090E00E94E3
:101BA000D00020918E0030918F0040919000509194
:101BB00091000E949B0E181664F08AE690E00E9445
:101BC00050058FE097E20197F1F700C00000C1E0F7
:101BD00030CB80EB90E00E948B0560918E0070917D
:101BE0008F00809190009091910040EB50E00E9416
:101BF000AC0880EB90E00E94F508409760F080E62A
:101C000090E00E9450058FE097E20197F1F700C045
:101C10000000C1E00ECB60EB70E082E990E00E9432
:101C2000010980EB90E00E9450058FE097E2019758
:101C3000F1F700C00000C1E0FCCA0E94F4048FE18B
:101C40009EE40197F1F700C0000061E080E10E948E
:101C5000310587E00E94C0040E9416095058BB2736
:101C6000AA270E94460E0C9449100E943B1038F09F
:101C70000E94421020F039F49F3F19F426F40C948E
:101C800028100EF4E095E7FB0C942210E92F0E9437
:101C90005A1058F3BA17620773078407950720F0A4
:101CA00079F4A6F50C947C100EF4E0950B2EBA2F67
:101CB000A02D0B01B90190010C01CA01A001112452
:101CC000FF27591B99F0593F50F4503E68F11A16FE
:101CD000F040A22F232F342F4427585FF3CF46958F
:101CE00037952795A795F0405395C9F77EF41F16B1
:101CF000BA0B620B730B840BBAF09150A1F0FF0F7B
:101D0000BB1F661F771F881FC2F70EC0BA0F621F66
:101D1000731F841F48F4879577956795B795F79556
:101D20009E3F08F0B0CF9395880F08F09927EE0FEB
:101D30009795879508950E94FE0F08F481E0089515
:101D40000E94B40E0C9449100E94421058F00E9458
:101D50003B1040F029F45F3F29F00C942210511100
:101D60000C947D100C9428100E945A1068F399234B
:101D7000B1F3552391F3951B550BBB27AA27621787
:101D80007307840738F09F5F5F4F220F331F441F94
:101D9000AA1FA9F335D00E2E3AF0E0E832D09150C8
:101DA0005040E695001CCAF72BD0FE2F29D0660FB5
:101DB000771F881FBB1F261737074807AB07B0E8F8
:101DC00009F0BB0B802DBF01FF2793585F4F3AF0FE
:101DD0009E3F510578F00C9422100C947D105F3FCB
:101DE000E4F3983ED4F3869577956795B795F79584
:101DF0009F5FC9F7880F911D9695879597F908956C
:101E0000E1E0660F771F881FBB1F62177307840707
:101E1000BA0720F0621B730B840BBA0BEE1F88F716
:101E2000E0950895BEE304D008F490E80895BFE378
:101E300022273327A9010E94621060F19F5748F1C1
:101E4000B91740F1BFE3B91B9927B8503AF4660FB0
:101E5000771F881F991FB395D2F316C0B8504AF068
:101E6000232F342F452F562F672F782F8827B850D0
:101E7000BAF7B85F49F08695779567955795479576
:101E800037952795BA95B9F716F40E942B108894C8
:101E90000895889460E070E0CB0108950E9462107C
:101EA00088F09F5798F0B92F9927B751B0F0E1F01B
:101EB000660F771F881F991F1AF0BA95C9F714C0CB
:101EC000B13091F00E947C10B1E008950C947C1028
:101ED000672F782F8827B85F39F0B93FCCF3869504
:101EE00077956795B395D9F73EF490958095709561
:101EF00061957F4F8F4F9F4F089597FB16F40E9477
:101F00002B100C94C10FE89409C097FB3EF49095F8
:101F10008095709561957F4F8F4F9F4F9923A9F0C2
:101F2000F92F96E9BB279395F69587957795679551
:101F3000B795F111F8CFFAF4BB0F11F460FF1BC095
:101F40006F5F7F4F8F4F9F4F16C0882311F096E928
:101F500011C0772321F09EE8872F762F05C06623D6
:101F600071F096E8862F70E060E02AF09A95660F8F
:101F7000771F881FDAF7880F9695879597F9089548
:101F8000E894F92F96EBFF2381F01216130614063E
:101F9000440B9395F69587957795679557954040AF
:101FA000FF23B9F71BC099270895882351F498504F
:101FB000D2F7872B762F652F542F432F322F20E017
:101FC000B1F3121613061406440B88233AF09A95BF
:101FD000440F551F661F771F881FCAF755234AF401
:101FE000440F551F11F460FF04C06F5F7F4F8F4F88
:101FF0009F4F880F9695879597F90895990F000838
:10200000550FAA0BE0E8FEEF16161706E807F907CA
:10201000C0F012161306E407F50798F0621B730B65
:10202000840B950B39F40A2661F0232B242B252BE6
:1020300021F408950A2609F4A140A6958FEF811D89
:10204000811D089597F99F6780E870E060E008952A
:102050009FEF80EC089590958095709560955095D0
:102060004095309521953F4F4F4F5F4F6F4F7F4FBA
:102070008F4F9F4F089500240A94161617061806CE
:102080000906089500240A9412161306140605067C
:102090000895092E0394000C11F4882352F0BB0F0D
:1020A00040F4BF2B11F460FF04C06F5F7F4F8F4F70
:1020B0009F4F089557FD9058440F551F59F05F3FAB
:1020C00071F04795880F97FB991F61F09F3F79F05A
:1020D00087950895121613061406551FF2CF4695DC
:1020E000F1DF08C0161617061806991FF1CF86955E
:1020F0007105610508940895E894BB276627772742
:10210000CB0197F908950E94FE0F08F48FEF089510
:102110000E949B100C9449100E943B1038F00E94C2
:10212000421020F0952311F00C9422100C942810EA
:1021300011240C947D100E945A1070F3959FC1F3E6
:10214000950F50E0551F629FF001729FBB27F00D65
:10215000B11D639FAA27F00DB11DAA1F649F6627BA
:10216000B00DA11D661F829F2227B00DA11D621F09
:10217000739FB00DA11D621F839FA00D611D221FC3
:10218000749F3327A00D611D231F849F600D211DA7
:10219000822F762F6A2F11249F5750409AF0F1F02A
:1021A00088234AF0EE0FFF1FBB1F661F771F881F93
:1021B00091505040A9F79E3F510580F00C94221099
:1021C0000C947D105F3FE4F3983ED4F386957795A9
:1021D0006795B795F795E7959F5FC1F7FE2B880F39
:1021E000911D9695879597F90895EE0FFF1F05901D
:1021F000F491E02D0994689401C0E8948F929F9225
:10220000CF93DF930E940911DF91CF919F908F9020
:10221000089588249924F401E401B0E49F93AA2747
:102220009A158B049C04ED05FE05CF05D007A10788
:1022300098F4AD2FDC2FCF2FFE2FE92D982C892E6F
:10224000982F872F762F652F542F432F322F222739
:10225000B85031F7BF9127C01B2EBF91BB27220F6B
:10226000331F441F551F661F771F881F991F881C27
:10227000991CEE1FFF1FCC1FDD1FAA1FBB1F8A1456
:102280009B04EC05FD05CE05DF05A007B10748F06E
:102290008A189B08EC09FD09CE09DF09A00BB10BD8
:1022A00021601A94E1F62EF49401AF01BE01CD0134
:1022B000000C08952A193B094C095D096E097F0934
:1022C000800B910B08952A153B054C055D056E05A5
:1022D0007F058007910708950024A7FD00942A1721
:1022E000300540055005600570058005900508958E
:0422F000F894FFCF90
:1022F4004552524F522000004D004552524F520059
:10230400370038003900340035003600310032001F
:0A23140033002D0030002E002B00D6
:00000001FF
